{
  "_format": "hh-sol-artifact-1",
  "contractName": "NFT",
  "sourceName": "contracts/NFT.sol",
  "abi": [
    {
      "inputs": [
        {
          "internalType": "string",
          "name": "_name",
          "type": "string"
        },
        {
          "internalType": "string",
          "name": "_symbol",
          "type": "string"
        },
        {
          "internalType": "string",
          "name": "_initBaseURI",
          "type": "string"
        },
        {
          "internalType": "address",
          "name": "_imx",
          "type": "address"
        }
      ],
      "stateMutability": "nonpayable",
      "type": "constructor"
    },
    {
      "anonymous": false,
      "inputs": [
        {
          "indexed": true,
          "internalType": "address",
          "name": "owner",
          "type": "address"
        },
        {
          "indexed": true,
          "internalType": "address",
          "name": "approved",
          "type": "address"
        },
        {
          "indexed": true,
          "internalType": "uint256",
          "name": "tokenId",
          "type": "uint256"
        }
      ],
      "name": "Approval",
      "type": "event"
    },
    {
      "anonymous": false,
      "inputs": [
        {
          "indexed": true,
          "internalType": "address",
          "name": "owner",
          "type": "address"
        },
        {
          "indexed": true,
          "internalType": "address",
          "name": "operator",
          "type": "address"
        },
        {
          "indexed": false,
          "internalType": "bool",
          "name": "approved",
          "type": "bool"
        }
      ],
      "name": "ApprovalForAll",
      "type": "event"
    },
    {
      "anonymous": false,
      "inputs": [
        {
          "indexed": true,
          "internalType": "address",
          "name": "previousOwner",
          "type": "address"
        },
        {
          "indexed": true,
          "internalType": "address",
          "name": "newOwner",
          "type": "address"
        }
      ],
      "name": "OwnershipTransferred",
      "type": "event"
    },
    {
      "anonymous": false,
      "inputs": [
        {
          "indexed": true,
          "internalType": "address",
          "name": "from",
          "type": "address"
        },
        {
          "indexed": true,
          "internalType": "address",
          "name": "to",
          "type": "address"
        },
        {
          "indexed": true,
          "internalType": "uint256",
          "name": "tokenId",
          "type": "uint256"
        }
      ],
      "name": "Transfer",
      "type": "event"
    },
    {
      "inputs": [
        {
          "internalType": "address",
          "name": "to",
          "type": "address"
        },
        {
          "internalType": "uint256",
          "name": "tokenId",
          "type": "uint256"
        }
      ],
      "name": "approve",
      "outputs": [],
      "stateMutability": "nonpayable",
      "type": "function"
    },
    {
      "inputs": [
        {
          "internalType": "address",
          "name": "owner",
          "type": "address"
        }
      ],
      "name": "balanceOf",
      "outputs": [
        {
          "internalType": "uint256",
          "name": "",
          "type": "uint256"
        }
      ],
      "stateMutability": "view",
      "type": "function"
    },
    {
      "inputs": [
        {
          "internalType": "uint256",
          "name": "tokenId",
          "type": "uint256"
        }
      ],
      "name": "getApproved",
      "outputs": [
        {
          "internalType": "address",
          "name": "",
          "type": "address"
        }
      ],
      "stateMutability": "view",
      "type": "function"
    },
    {
      "inputs": [],
      "name": "imx",
      "outputs": [
        {
          "internalType": "address",
          "name": "",
          "type": "address"
        }
      ],
      "stateMutability": "view",
      "type": "function"
    },
    {
      "inputs": [
        {
          "internalType": "address",
          "name": "owner",
          "type": "address"
        },
        {
          "internalType": "address",
          "name": "operator",
          "type": "address"
        }
      ],
      "name": "isApprovedForAll",
      "outputs": [
        {
          "internalType": "bool",
          "name": "",
          "type": "bool"
        }
      ],
      "stateMutability": "view",
      "type": "function"
    },
    {
      "inputs": [
        {
          "internalType": "address",
          "name": "user",
          "type": "address"
        },
        {
          "internalType": "uint256",
          "name": "quantity",
          "type": "uint256"
        },
        {
          "internalType": "bytes",
          "name": "mintingBlob",
          "type": "bytes"
        }
      ],
      "name": "mintFor",
      "outputs": [],
      "stateMutability": "nonpayable",
      "type": "function"
    },
    {
      "inputs": [],
      "name": "name",
      "outputs": [
        {
          "internalType": "string",
          "name": "",
          "type": "string"
        }
      ],
      "stateMutability": "view",
      "type": "function"
    },
    {
      "inputs": [],
      "name": "owner",
      "outputs": [
        {
          "internalType": "address",
          "name": "",
          "type": "address"
        }
      ],
      "stateMutability": "view",
      "type": "function"
    },
    {
      "inputs": [
        {
          "internalType": "uint256",
          "name": "tokenId",
          "type": "uint256"
        }
      ],
      "name": "ownerOf",
      "outputs": [
        {
          "internalType": "address",
          "name": "",
          "type": "address"
        }
      ],
      "stateMutability": "view",
      "type": "function"
    },
    {
      "inputs": [],
      "name": "renounceOwnership",
      "outputs": [],
      "stateMutability": "nonpayable",
      "type": "function"
    },
    {
      "inputs": [
        {
          "internalType": "address",
          "name": "from",
          "type": "address"
        },
        {
          "internalType": "address",
          "name": "to",
          "type": "address"
        },
        {
          "internalType": "uint256",
          "name": "tokenId",
          "type": "uint256"
        }
      ],
      "name": "safeTransferFrom",
      "outputs": [],
      "stateMutability": "nonpayable",
      "type": "function"
    },
    {
      "inputs": [
        {
          "internalType": "address",
          "name": "from",
          "type": "address"
        },
        {
          "internalType": "address",
          "name": "to",
          "type": "address"
        },
        {
          "internalType": "uint256",
          "name": "tokenId",
          "type": "uint256"
        },
        {
          "internalType": "bytes",
          "name": "data",
          "type": "bytes"
        }
      ],
      "name": "safeTransferFrom",
      "outputs": [],
      "stateMutability": "nonpayable",
      "type": "function"
    },
    {
      "inputs": [
        {
          "internalType": "address",
          "name": "operator",
          "type": "address"
        },
        {
          "internalType": "bool",
          "name": "approved",
          "type": "bool"
        }
      ],
      "name": "setApprovalForAll",
      "outputs": [],
      "stateMutability": "nonpayable",
      "type": "function"
    },
    {
      "inputs": [
        {
          "internalType": "string",
          "name": "newBaseURI",
          "type": "string"
        }
      ],
      "name": "setBaseURI",
      "outputs": [],
      "stateMutability": "nonpayable",
      "type": "function"
    },
    {
      "inputs": [
        {
          "internalType": "bytes4",
          "name": "interfaceId",
          "type": "bytes4"
        }
      ],
      "name": "supportsInterface",
      "outputs": [
        {
          "internalType": "bool",
          "name": "",
          "type": "bool"
        }
      ],
      "stateMutability": "view",
      "type": "function"
    },
    {
      "inputs": [],
      "name": "symbol",
      "outputs": [
        {
          "internalType": "string",
          "name": "",
          "type": "string"
        }
      ],
      "stateMutability": "view",
      "type": "function"
    },
    {
      "inputs": [
        {
          "internalType": "uint256",
          "name": "tokenId",
          "type": "uint256"
        }
      ],
      "name": "tokenURI",
      "outputs": [
        {
          "internalType": "string",
          "name": "",
          "type": "string"
        }
      ],
      "stateMutability": "view",
      "type": "function"
    },
    {
      "inputs": [
        {
          "internalType": "address",
          "name": "from",
          "type": "address"
        },
        {
          "internalType": "address",
          "name": "to",
          "type": "address"
        },
        {
          "internalType": "uint256",
          "name": "tokenId",
          "type": "uint256"
        }
      ],
      "name": "transferFrom",
      "outputs": [],
      "stateMutability": "nonpayable",
      "type": "function"
    },
    {
      "inputs": [
        {
          "internalType": "address",
          "name": "newOwner",
          "type": "address"
        }
      ],
      "name": "transferOwnership",
      "outputs": [],
      "stateMutability": "nonpayable",
      "type": "function"
    }
  ],
  "bytecode": "0x60806040523480156200001157600080fd5b5060405162001e3838038062001e38833981016040819052620000349162000271565b80848481600090805190602001906200004f92919062000118565b5080516200006590600190602084019062000118565b505050620000826200007c620000c260201b60201c565b620000c6565b600780546001600160a01b0319166001600160a01b03929092169190911790558151620000b790600890602085019062000118565b505050505062000372565b3390565b600680546001600160a01b038381166001600160a01b0319831681179093556040519116919082907f8be0079c531659141344cd1fd0a4f28419497f9722a3daafe3b4186f6b6457e090600090a35050565b82805462000126906200031f565b90600052602060002090601f0160209004810192826200014a576000855562000195565b82601f106200016557805160ff191683800117855562000195565b8280016001018555821562000195579182015b828111156200019557825182559160200191906001019062000178565b50620001a3929150620001a7565b5090565b5b80821115620001a35760008155600101620001a8565b600082601f830112620001cf578081fd5b81516001600160401b0380821115620001ec57620001ec6200035c565b604051601f8301601f19908116603f011681019082821181831017156200021757620002176200035c565b8160405283815260209250868385880101111562000233578485fd5b8491505b8382101562000256578582018301518183018401529082019062000237565b838211156200026757848385830101525b9695505050505050565b6000806000806080858703121562000287578384fd5b84516001600160401b03808211156200029e578586fd5b620002ac88838901620001be565b95506020870151915080821115620002c2578485fd5b620002d088838901620001be565b94506040870151915080821115620002e6578384fd5b50620002f587828801620001be565b606087015190935090506001600160a01b038116811462000314578182fd5b939692955090935050565b600181811c908216806200033457607f821691505b602082108114156200035657634e487b7160e01b600052602260045260246000fd5b50919050565b634e487b7160e01b600052604160045260246000fd5b611ab680620003826000396000f3fe608060405234801561001057600080fd5b50600436106101215760003560e01c80636352211e116100ad578063a22cb46511610071578063a22cb46514610257578063b88d4fde1461026a578063c87b56dd1461027d578063e985e9c514610290578063f2fde38b146102cc57600080fd5b80636352211e1461020257806370a0823114610215578063715018a6146102365780638da5cb5b1461023e57806395d89b411461024f57600080fd5b80630f08025f116100f45780630f08025f146101a357806319ee6e3f146101b657806323b872dd146101c957806342842e0e146101dc57806355f804b3146101ef57600080fd5b806301ffc9a71461012657806306fdde031461014e578063081812fc14610163578063095ea7b31461018e575b600080fd5b610139610134366004611721565b6102df565b60405190151581526020015b60405180910390f35b610156610331565b604051610145919061184f565b61017661017136600461179f565b6103c3565b6040516001600160a01b039091168152602001610145565b6101a161019c366004611676565b6103ea565b005b600754610176906001600160a01b031681565b6101a16101c436600461169f565b610505565b6101a16101d7366004611588565b6105ef565b6101a16101ea366004611588565b610620565b6101a16101fd366004611759565b61063b565b61017661021036600461179f565b61065a565b61022861022336600461153c565b6106ba565b604051908152602001610145565b6101a1610740565b6006546001600160a01b0316610176565b610156610754565b6101a161026536600461163c565b610763565b6101a16102783660046115c3565b61076e565b61015661028b36600461179f565b6107a6565b61013961029e366004611556565b6001600160a01b03918216600090815260056020908152604080832093909416825291909152205460ff1690565b6101a16102da36600461153c565b61080d565b60006001600160e01b031982166380ac58cd60e01b148061031057506001600160e01b03198216635b5e139f60e01b145b8061032b57506301ffc9a760e01b6001600160e01b03198316145b92915050565b606060008054610340906119e8565b80601f016020809104026020016040519081016040528092919081815260200182805461036c906119e8565b80156103b95780601f1061038e576101008083540402835291602001916103b9565b820191906000526020600020905b81548152906001019060200180831161039c57829003601f168201915b5050505050905090565b60006103ce82610886565b506000908152600460205260409020546001600160a01b031690565b60006103f58261065a565b9050806001600160a01b0316836001600160a01b031614156104685760405162461bcd60e51b815260206004820152602160248201527f4552433732313a20617070726f76616c20746f2063757272656e74206f776e656044820152603960f91b60648201526084015b60405180910390fd5b336001600160a01b03821614806104845750610484813361029e565b6104f65760405162461bcd60e51b815260206004820152603d60248201527f4552433732313a20617070726f76652063616c6c6572206973206e6f7420746f60448201527f6b656e206f776e6572206f7220617070726f76656420666f7220616c6c000000606482015260840161045f565b61050083836108e5565b505050565b6007546001600160a01b0316336001600160a01b0316148061053157506006546001600160a01b031633145b61057d5760405162461bcd60e51b815260206004820152601760248201527f6f6e6c7920616c6c6f77206f776e6572206f7220494d58000000000000000000604482015260640161045f565b826001146105c05760405162461bcd60e51b815260206004820152601060248201526f696e76616c6964207175616e7469747960801b604482015260640161045f565b60006105cc8383610953565b90506105e8858260405180602001604052806000815250610a58565b5050505050565b6105f93382610a62565b6106155760405162461bcd60e51b815260040161045f90611862565b610500838383610ae0565b6105008383836040518060200160405280600081525061076e565b610643610c44565b8051610656906008906020840190611411565b5050565b6000818152600260205260408120546001600160a01b03168061032b5760405162461bcd60e51b8152602060048201526018602482015277115490cdcc8c4e881a5b9d985b1a59081d1bdad95b88125160421b604482015260640161045f565b60006001600160a01b0382166107245760405162461bcd60e51b815260206004820152602960248201527f4552433732313a2061646472657373207a65726f206973206e6f7420612076616044820152683634b21037bbb732b960b91b606482015260840161045f565b506001600160a01b031660009081526003602052604090205490565b610748610c44565b6107526000610c9e565b565b606060018054610340906119e8565b610656338383610cf0565b6107783383610a62565b6107945760405162461bcd60e51b815260040161045f90611862565b6107a084848484610dbf565b50505050565b60606107b182610886565b60006107bb610df2565b905060008151116107db5760405180602001604052806000815250610806565b806107e584610e01565b6040516020016107f69291906117e3565b6040516020818303038152906040525b9392505050565b610815610c44565b6001600160a01b03811661087a5760405162461bcd60e51b815260206004820152602660248201527f4f776e61626c653a206e6577206f776e657220697320746865207a65726f206160448201526564647265737360d01b606482015260840161045f565b61088381610c9e565b50565b6000818152600260205260409020546001600160a01b03166108835760405162461bcd60e51b8152602060048201526018602482015277115490cdcc8c4e881a5b9d985b1a59081d1bdad95b88125160421b604482015260640161045f565b600081815260046020526040902080546001600160a01b0319166001600160a01b038416908117909155819061091a8261065a565b6001600160a01b03167f8c5be1e5ebec7d5bd14f71427d1e84f3dd0314c0f7b2291e5b200ac8c7c3b92560405160405180910390a45050565b6000806109ae84848080601f01602080910402602001604051908101604052809392919081815260200183838082843760009201829052506040805180820190915260018152601d60f91b602082015293509150610eac9050565b905060008112156109f85760405162461bcd60e51b815260206004820152601460248201527314d95c185c985d1bdc881b5d5cdd08195e1a5cdd60621b604482015260640161045f565b610a5084600185610a0982866119a5565b92610a1693929190611946565b8080601f016020809104026020016040519081016040528093929190818152602001838380828437600092019190915250610f6e92505050565b949350505050565b6105008383611054565b600080610a6e8361065a565b9050806001600160a01b0316846001600160a01b03161480610ab557506001600160a01b0380821660009081526005602090815260408083209388168352929052205460ff165b80610a505750836001600160a01b0316610ace846103c3565b6001600160a01b031614949350505050565b826001600160a01b0316610af38261065a565b6001600160a01b031614610b195760405162461bcd60e51b815260040161045f90611901565b6001600160a01b038216610b7b5760405162461bcd60e51b8152602060048201526024808201527f4552433732313a207472616e7366657220746f20746865207a65726f206164646044820152637265737360e01b606482015260840161045f565b826001600160a01b0316610b8e8261065a565b6001600160a01b031614610bb45760405162461bcd60e51b815260040161045f90611901565b600081815260046020908152604080832080546001600160a01b03199081169091556001600160a01b0387811680865260038552838620805460001901905590871680865283862080546001019055868652600290945282852080549092168417909155905184937fddf252ad1be2c89b69c2b068fc378daa952ba7f163c4a11628f55a4df523b3ef91a4505050565b6006546001600160a01b031633146107525760405162461bcd60e51b815260206004820181905260248201527f4f776e61626c653a2063616c6c6572206973206e6f7420746865206f776e6572604482015260640161045f565b600680546001600160a01b038381166001600160a01b0319831681179093556040519116919082907f8be0079c531659141344cd1fd0a4f28419497f9722a3daafe3b4186f6b6457e090600090a35050565b816001600160a01b0316836001600160a01b03161415610d525760405162461bcd60e51b815260206004820152601960248201527f4552433732313a20617070726f766520746f2063616c6c657200000000000000604482015260640161045f565b6001600160a01b03838116600081815260056020908152604080832094871680845294825291829020805460ff191686151590811790915591519182527f17307eab39ab6107e8899845ad3d59bd9653f200f220920489ca2b5937696c31910160405180910390a3505050565b610dca848484610ae0565b610dd68484848461106e565b6107a05760405162461bcd60e51b815260040161045f906118af565b606060088054610340906119e8565b60606000610e0e8361117b565b600101905060008167ffffffffffffffff811115610e3c57634e487b7160e01b600052604160045260246000fd5b6040519080825280601f01601f191660200182016040528015610e66576020820181803683370190505b5090508181016020015b600019016f181899199a1a9b1b9c1cb0b131b232b360811b600a86061a8153600a8504945084610e9f57610ea4565b610e70565b509392505050565b81516000908390600114610ed057634e487b7160e01b600052600160045260246000fd5b825b8551811015610f615781600081518110610efc57634e487b7160e01b600052603260045260246000fd5b602001015160f81c60f81b6001600160f81b031916868281518110610f3157634e487b7160e01b600052603260045260246000fd5b01602001516001600160f81b0319161415610f4f5791506108069050565b80610f5981611a23565b915050610ed2565b5060001995945050505050565b600080805b835181101561104d576000848281518110610f9e57634e487b7160e01b600052603260045260246000fd5b016020015160f81c905060308110801590610fba575060398111155b15610fe657610fca6030826119a5565b610fd584600a611986565b610fdf919061196e565b925061103a565b60405162461bcd60e51b815260206004820152602360248201527f696e76616c696420696e7075742c206f6e6c79206e756d6265727320616c6c6f6044820152621dd95960ea1b606482015260840161045f565b508061104581611a23565b915050610f73565b5092915050565b610656828260405180602001604052806000815250611253565b60006001600160a01b0384163b1561117057604051630a85bd0160e11b81526001600160a01b0385169063150b7a02906110b2903390899088908890600401611812565b602060405180830381600087803b1580156110cc57600080fd5b505af19250505080156110fc575060408051601f3d908101601f191682019092526110f99181019061173d565b60015b611156573d80801561112a576040519150601f19603f3d011682016040523d82523d6000602084013e61112f565b606091505b50805161114e5760405162461bcd60e51b815260040161045f906118af565b805181602001fd5b6001600160e01b031916630a85bd0160e11b149050610a50565b506001949350505050565b60008072184f03e93ff9f4daa797ed6e38ed64bf6a1f0160401b83106111ba5772184f03e93ff9f4daa797ed6e38ed64bf6a1f0160401b830492506040015b6d04ee2d6d415b85acef810000000083106111e6576d04ee2d6d415b85acef8100000000830492506020015b662386f26fc10000831061120457662386f26fc10000830492506010015b6305f5e100831061121c576305f5e100830492506008015b612710831061123057612710830492506004015b60648310611242576064830492506002015b600a831061032b5760010192915050565b61125d8383611286565b61126a600084848461106e565b6105005760405162461bcd60e51b815260040161045f906118af565b6001600160a01b0382166112dc5760405162461bcd60e51b815260206004820181905260248201527f4552433732313a206d696e7420746f20746865207a65726f2061646472657373604482015260640161045f565b6000818152600260205260409020546001600160a01b0316156113415760405162461bcd60e51b815260206004820152601c60248201527f4552433732313a20746f6b656e20616c7265616479206d696e74656400000000604482015260640161045f565b6000818152600260205260409020546001600160a01b0316156113a65760405162461bcd60e51b815260206004820152601c60248201527f4552433732313a20746f6b656e20616c7265616479206d696e74656400000000604482015260640161045f565b6001600160a01b038216600081815260036020908152604080832080546001019055848352600290915280822080546001600160a01b0319168417905551839291907fddf252ad1be2c89b69c2b068fc378daa952ba7f163c4a11628f55a4df523b3ef908290a45050565b82805461141d906119e8565b90600052602060002090601f01602090048101928261143f5760008555611485565b82601f1061145857805160ff1916838001178555611485565b82800160010185558215611485579182015b8281111561148557825182559160200191906001019061146a565b50611491929150611495565b5090565b5b808211156114915760008155600101611496565b600067ffffffffffffffff808411156114c5576114c5611a54565b604051601f8501601f19908116603f011681019082821181831017156114ed576114ed611a54565b8160405280935085815286868601111561150657600080fd5b858560208301376000602087830101525050509392505050565b80356001600160a01b038116811461153757600080fd5b919050565b60006020828403121561154d578081fd5b61080682611520565b60008060408385031215611568578081fd5b61157183611520565b915061157f60208401611520565b90509250929050565b60008060006060848603121561159c578081fd5b6115a584611520565b92506115b360208501611520565b9150604084013590509250925092565b600080600080608085870312156115d8578081fd5b6115e185611520565b93506115ef60208601611520565b925060408501359150606085013567ffffffffffffffff811115611611578182fd5b8501601f81018713611621578182fd5b611630878235602084016114aa565b91505092959194509250565b6000806040838503121561164e578182fd5b61165783611520565b91506020830135801515811461166b578182fd5b809150509250929050565b60008060408385031215611688578182fd5b61169183611520565b946020939093013593505050565b600080600080606085870312156116b4578384fd5b6116bd85611520565b935060208501359250604085013567ffffffffffffffff808211156116e0578384fd5b818701915087601f8301126116f3578384fd5b813581811115611701578485fd5b886020828501011115611712578485fd5b95989497505060200194505050565b600060208284031215611732578081fd5b813561080681611a6a565b60006020828403121561174e578081fd5b815161080681611a6a565b60006020828403121561176a578081fd5b813567ffffffffffffffff811115611780578182fd5b8201601f81018413611790578182fd5b610a50848235602084016114aa565b6000602082840312156117b0578081fd5b5035919050565b600081518084526117cf8160208601602086016119bc565b601f01601f19169290920160200192915050565b600083516117f58184602088016119bc565b8351908301906118098183602088016119bc565b01949350505050565b6001600160a01b0385811682528416602082015260408101839052608060608201819052600090611845908301846117b7565b9695505050505050565b60208152600061080660208301846117b7565b6020808252602d908201527f4552433732313a2063616c6c6572206973206e6f7420746f6b656e206f776e6560408201526c1c881bdc88185c1c1c9bdd9959609a1b606082015260800190565b60208082526032908201527f4552433732313a207472616e7366657220746f206e6f6e20455243373231526560408201527131b2b4bb32b91034b6b83632b6b2b73a32b960711b606082015260800190565b60208082526025908201527f4552433732313a207472616e736665722066726f6d20696e636f72726563742060408201526437bbb732b960d91b606082015260800190565b60008085851115611955578182fd5b83861115611961578182fd5b5050820193919092039150565b6000821982111561198157611981611a3e565b500190565b60008160001904831182151516156119a0576119a0611a3e565b500290565b6000828210156119b7576119b7611a3e565b500390565b60005b838110156119d75781810151838201526020016119bf565b838111156107a05750506000910152565b600181811c908216806119fc57607f821691505b60208210811415611a1d57634e487b7160e01b600052602260045260246000fd5b50919050565b6000600019821415611a3757611a37611a3e565b5060010190565b634e487b7160e01b600052601160045260246000fd5b634e487b7160e01b600052604160045260246000fd5b6001600160e01b03198116811461088357600080fdfea2646970667358221220207ddc372c0f4f9be23b41909f651d0430990573930f2608e67c4d1d650efe0e64736f6c63430008040033",
  "linkReferences": {},
  "deployedLinkReferences": {}
}