{
  "_format": "hh-sol-artifact-1",
  "contractName": "NFTMeta",
  "sourceName": "contracts/NFTMeta.sol",
  "abi": [
    {
      "inputs": [
        {
          "internalType": "string",
          "name": "_name",
          "type": "string"
        },
        {
          "internalType": "string",
          "name": "_symbol",
          "type": "string"
        },
        {
          "internalType": "string",
          "name": "_initBaseURI",
          "type": "string"
        },
        {
          "internalType": "address",
          "name": "_imx",
          "type": "address"
        }
      ],
      "stateMutability": "nonpayable",
      "type": "constructor"
    },
    {
      "anonymous": false,
      "inputs": [
        {
          "indexed": true,
          "internalType": "address",
          "name": "owner",
          "type": "address"
        },
        {
          "indexed": true,
          "internalType": "address",
          "name": "approved",
          "type": "address"
        },
        {
          "indexed": true,
          "internalType": "uint256",
          "name": "tokenId",
          "type": "uint256"
        }
      ],
      "name": "Approval",
      "type": "event"
    },
    {
      "anonymous": false,
      "inputs": [
        {
          "indexed": true,
          "internalType": "address",
          "name": "owner",
          "type": "address"
        },
        {
          "indexed": true,
          "internalType": "address",
          "name": "operator",
          "type": "address"
        },
        {
          "indexed": false,
          "internalType": "bool",
          "name": "approved",
          "type": "bool"
        }
      ],
      "name": "ApprovalForAll",
      "type": "event"
    },
    {
      "anonymous": false,
      "inputs": [
        {
          "indexed": true,
          "internalType": "address",
          "name": "previousOwner",
          "type": "address"
        },
        {
          "indexed": true,
          "internalType": "address",
          "name": "newOwner",
          "type": "address"
        }
      ],
      "name": "OwnershipTransferred",
      "type": "event"
    },
    {
      "anonymous": false,
      "inputs": [
        {
          "indexed": true,
          "internalType": "address",
          "name": "from",
          "type": "address"
        },
        {
          "indexed": true,
          "internalType": "address",
          "name": "to",
          "type": "address"
        },
        {
          "indexed": true,
          "internalType": "uint256",
          "name": "tokenId",
          "type": "uint256"
        }
      ],
      "name": "Transfer",
      "type": "event"
    },
    {
      "inputs": [
        {
          "internalType": "address",
          "name": "to",
          "type": "address"
        },
        {
          "internalType": "uint256",
          "name": "tokenId",
          "type": "uint256"
        }
      ],
      "name": "approve",
      "outputs": [],
      "stateMutability": "nonpayable",
      "type": "function"
    },
    {
      "inputs": [
        {
          "internalType": "address",
          "name": "owner",
          "type": "address"
        }
      ],
      "name": "balanceOf",
      "outputs": [
        {
          "internalType": "uint256",
          "name": "",
          "type": "uint256"
        }
      ],
      "stateMutability": "view",
      "type": "function"
    },
    {
      "inputs": [
        {
          "internalType": "uint256",
          "name": "",
          "type": "uint256"
        }
      ],
      "name": "blueprints",
      "outputs": [
        {
          "internalType": "bytes",
          "name": "",
          "type": "bytes"
        }
      ],
      "stateMutability": "view",
      "type": "function"
    },
    {
      "inputs": [
        {
          "internalType": "uint256",
          "name": "tokenId",
          "type": "uint256"
        }
      ],
      "name": "getApproved",
      "outputs": [
        {
          "internalType": "address",
          "name": "",
          "type": "address"
        }
      ],
      "stateMutability": "view",
      "type": "function"
    },
    {
      "inputs": [],
      "name": "imx",
      "outputs": [
        {
          "internalType": "address",
          "name": "",
          "type": "address"
        }
      ],
      "stateMutability": "view",
      "type": "function"
    },
    {
      "inputs": [
        {
          "internalType": "address",
          "name": "owner",
          "type": "address"
        },
        {
          "internalType": "address",
          "name": "operator",
          "type": "address"
        }
      ],
      "name": "isApprovedForAll",
      "outputs": [
        {
          "internalType": "bool",
          "name": "",
          "type": "bool"
        }
      ],
      "stateMutability": "view",
      "type": "function"
    },
    {
      "inputs": [
        {
          "internalType": "address",
          "name": "user",
          "type": "address"
        },
        {
          "internalType": "uint256",
          "name": "quantity",
          "type": "uint256"
        },
        {
          "internalType": "bytes",
          "name": "mintingBlob",
          "type": "bytes"
        }
      ],
      "name": "mintFor",
      "outputs": [],
      "stateMutability": "nonpayable",
      "type": "function"
    },
    {
      "inputs": [],
      "name": "name",
      "outputs": [
        {
          "internalType": "string",
          "name": "",
          "type": "string"
        }
      ],
      "stateMutability": "view",
      "type": "function"
    },
    {
      "inputs": [],
      "name": "owner",
      "outputs": [
        {
          "internalType": "address",
          "name": "",
          "type": "address"
        }
      ],
      "stateMutability": "view",
      "type": "function"
    },
    {
      "inputs": [
        {
          "internalType": "uint256",
          "name": "tokenId",
          "type": "uint256"
        }
      ],
      "name": "ownerOf",
      "outputs": [
        {
          "internalType": "address",
          "name": "",
          "type": "address"
        }
      ],
      "stateMutability": "view",
      "type": "function"
    },
    {
      "inputs": [],
      "name": "renounceOwnership",
      "outputs": [],
      "stateMutability": "nonpayable",
      "type": "function"
    },
    {
      "inputs": [
        {
          "internalType": "address",
          "name": "from",
          "type": "address"
        },
        {
          "internalType": "address",
          "name": "to",
          "type": "address"
        },
        {
          "internalType": "uint256",
          "name": "tokenId",
          "type": "uint256"
        }
      ],
      "name": "safeTransferFrom",
      "outputs": [],
      "stateMutability": "nonpayable",
      "type": "function"
    },
    {
      "inputs": [
        {
          "internalType": "address",
          "name": "from",
          "type": "address"
        },
        {
          "internalType": "address",
          "name": "to",
          "type": "address"
        },
        {
          "internalType": "uint256",
          "name": "tokenId",
          "type": "uint256"
        },
        {
          "internalType": "bytes",
          "name": "data",
          "type": "bytes"
        }
      ],
      "name": "safeTransferFrom",
      "outputs": [],
      "stateMutability": "nonpayable",
      "type": "function"
    },
    {
      "inputs": [
        {
          "internalType": "address",
          "name": "operator",
          "type": "address"
        },
        {
          "internalType": "bool",
          "name": "approved",
          "type": "bool"
        }
      ],
      "name": "setApprovalForAll",
      "outputs": [],
      "stateMutability": "nonpayable",
      "type": "function"
    },
    {
      "inputs": [
        {
          "internalType": "string",
          "name": "newBaseURI",
          "type": "string"
        }
      ],
      "name": "setBaseURI",
      "outputs": [],
      "stateMutability": "nonpayable",
      "type": "function"
    },
    {
      "inputs": [
        {
          "internalType": "bytes4",
          "name": "interfaceId",
          "type": "bytes4"
        }
      ],
      "name": "supportsInterface",
      "outputs": [
        {
          "internalType": "bool",
          "name": "",
          "type": "bool"
        }
      ],
      "stateMutability": "view",
      "type": "function"
    },
    {
      "inputs": [],
      "name": "symbol",
      "outputs": [
        {
          "internalType": "string",
          "name": "",
          "type": "string"
        }
      ],
      "stateMutability": "view",
      "type": "function"
    },
    {
      "inputs": [
        {
          "internalType": "uint256",
          "name": "tokenId",
          "type": "uint256"
        }
      ],
      "name": "tokenURI",
      "outputs": [
        {
          "internalType": "string",
          "name": "",
          "type": "string"
        }
      ],
      "stateMutability": "view",
      "type": "function"
    },
    {
      "inputs": [
        {
          "internalType": "address",
          "name": "from",
          "type": "address"
        },
        {
          "internalType": "address",
          "name": "to",
          "type": "address"
        },
        {
          "internalType": "uint256",
          "name": "tokenId",
          "type": "uint256"
        }
      ],
      "name": "transferFrom",
      "outputs": [],
      "stateMutability": "nonpayable",
      "type": "function"
    },
    {
      "inputs": [
        {
          "internalType": "address",
          "name": "newOwner",
          "type": "address"
        }
      ],
      "name": "transferOwnership",
      "outputs": [],
      "stateMutability": "nonpayable",
      "type": "function"
    }
  ],
  "bytecode": "0x60806040523480156200001157600080fd5b5060405162001fbc38038062001fbc833981016040819052620000349162000271565b80848481600090805190602001906200004f92919062000118565b5080516200006590600190602084019062000118565b505050620000826200007c620000c260201b60201c565b620000c6565b600780546001600160a01b0319166001600160a01b03929092169190911790558151620000b790600990602085019062000118565b505050505062000372565b3390565b600680546001600160a01b038381166001600160a01b0319831681179093556040519116919082907f8be0079c531659141344cd1fd0a4f28419497f9722a3daafe3b4186f6b6457e090600090a35050565b82805462000126906200031f565b90600052602060002090601f0160209004810192826200014a576000855562000195565b82601f106200016557805160ff191683800117855562000195565b8280016001018555821562000195579182015b828111156200019557825182559160200191906001019062000178565b50620001a3929150620001a7565b5090565b5b80821115620001a35760008155600101620001a8565b600082601f830112620001cf578081fd5b81516001600160401b0380821115620001ec57620001ec6200035c565b604051601f8301601f19908116603f011681019082821181831017156200021757620002176200035c565b8160405283815260209250868385880101111562000233578485fd5b8491505b8382101562000256578582018301518183018401529082019062000237565b838211156200026757848385830101525b9695505050505050565b6000806000806080858703121562000287578384fd5b84516001600160401b03808211156200029e578586fd5b620002ac88838901620001be565b95506020870151915080821115620002c2578485fd5b620002d088838901620001be565b94506040870151915080821115620002e6578384fd5b50620002f587828801620001be565b606087015190935090506001600160a01b038116811462000314578182fd5b939692955090935050565b600181811c908216806200033457607f821691505b602082108114156200035657634e487b7160e01b600052602260045260246000fd5b50919050565b634e487b7160e01b600052604160045260246000fd5b611c3a80620003826000396000f3fe608060405234801561001057600080fd5b506004361061012c5760003560e01c806366bf33be116100ad578063a22cb46511610071578063a22cb46514610275578063b88d4fde14610288578063c87b56dd1461029b578063e985e9c5146102ae578063f2fde38b146102ea57600080fd5b806366bf33be1461022057806370a0823114610233578063715018a6146102545780638da5cb5b1461025c57806395d89b411461026d57600080fd5b806319ee6e3f116100f457806319ee6e3f146101c157806323b872dd146101d457806342842e0e146101e757806355f804b3146101fa5780636352211e1461020d57600080fd5b806301ffc9a71461013157806306fdde0314610159578063081812fc1461016e578063095ea7b3146101995780630f08025f146101ae575b600080fd5b61014461013f3660046118a5565b6102fd565b60405190151581526020015b60405180910390f35b61016161034f565b60405161015091906119d3565b61018161017c366004611923565b6103e1565b6040516001600160a01b039091168152602001610150565b6101ac6101a73660046117fa565b610408565b005b600754610181906001600160a01b031681565b6101ac6101cf366004611823565b610523565b6101ac6101e236600461170c565b610622565b6101ac6101f536600461170c565b610653565b6101ac6102083660046118dd565b61066e565b61018161021b366004611923565b61068d565b61016161022e366004611923565b6106ed565b6102466102413660046116c0565b610787565b604051908152602001610150565b6101ac61080d565b6006546001600160a01b0316610181565b610161610821565b6101ac6102833660046117c0565b610830565b6101ac610296366004611747565b61083b565b6101616102a9366004611923565b610873565b6101446102bc3660046116da565b6001600160a01b03918216600090815260056020908152604080832093909416825291909152205460ff1690565b6101ac6102f83660046116c0565b6108da565b60006001600160e01b031982166380ac58cd60e01b148061032e57506001600160e01b03198216635b5e139f60e01b145b8061034957506301ffc9a760e01b6001600160e01b03198316145b92915050565b60606000805461035e90611b6c565b80601f016020809104026020016040519081016040528092919081815260200182805461038a90611b6c565b80156103d75780601f106103ac576101008083540402835291602001916103d7565b820191906000526020600020905b8154815290600101906020018083116103ba57829003601f168201915b5050505050905090565b60006103ec82610953565b506000908152600460205260409020546001600160a01b031690565b60006104138261068d565b9050806001600160a01b0316836001600160a01b031614156104865760405162461bcd60e51b815260206004820152602160248201527f4552433732313a20617070726f76616c20746f2063757272656e74206f776e656044820152603960f91b60648201526084015b60405180910390fd5b336001600160a01b03821614806104a257506104a281336102bc565b6105145760405162461bcd60e51b815260206004820152603d60248201527f4552433732313a20617070726f76652063616c6c6572206973206e6f7420746f60448201527f6b656e206f776e6572206f7220617070726f76656420666f7220616c6c000000606482015260840161047d565b61051e83836109b2565b505050565b6007546001600160a01b0316336001600160a01b0316148061054f57506006546001600160a01b031633145b61059b5760405162461bcd60e51b815260206004820152601760248201527f6f6e6c7920616c6c6f77206f776e6572206f7220494d58000000000000000000604482015260640161047d565b826001146105de5760405162461bcd60e51b815260206004820152601060248201526f696e76616c6964207175616e7469747960801b604482015260640161047d565b6000806105eb8484610a20565b915091506105fa868383610bdb565b6000828152600860209081526040909120825161061992840190611595565b50505050505050565b61062c3382610be5565b6106485760405162461bcd60e51b815260040161047d906119e6565b61051e838383610c64565b61051e8383836040518060200160405280600081525061083b565b610676610dc8565b8051610689906009906020840190611595565b5050565b6000818152600260205260408120546001600160a01b0316806103495760405162461bcd60e51b8152602060048201526018602482015277115490cdcc8c4e881a5b9d985b1a59081d1bdad95b88125160421b604482015260640161047d565b6008602052600090815260409020805461070690611b6c565b80601f016020809104026020016040519081016040528092919081815260200182805461073290611b6c565b801561077f5780601f106107545761010080835404028352916020019161077f565b820191906000526020600020905b81548152906001019060200180831161076257829003601f168201915b505050505081565b60006001600160a01b0382166107f15760405162461bcd60e51b815260206004820152602960248201527f4552433732313a2061646472657373207a65726f206973206e6f7420612076616044820152683634b21037bbb732b960b91b606482015260840161047d565b506001600160a01b031660009081526003602052604090205490565b610815610dc8565b61081f6000610e22565b565b60606001805461035e90611b6c565b610689338383610e74565b6108453383610be5565b6108615760405162461bcd60e51b815260040161047d906119e6565b61086d84848484610f43565b50505050565b606061087e82610953565b6000610888610f76565b905060008151116108a857604051806020016040528060008152506108d3565b806108b284610f85565b6040516020016108c3929190611967565b6040516020818303038152906040525b9392505050565b6108e2610dc8565b6001600160a01b0381166109475760405162461bcd60e51b815260206004820152602660248201527f4f776e61626c653a206e6577206f776e657220697320746865207a65726f206160448201526564647265737360d01b606482015260840161047d565b61095081610e22565b50565b6000818152600260205260409020546001600160a01b03166109505760405162461bcd60e51b8152602060048201526018602482015277115490cdcc8c4e881a5b9d985b1a59081d1bdad95b88125160421b604482015260640161047d565b600081815260046020526040902080546001600160a01b0319166001600160a01b03841690811790915581906109e78261068d565b6001600160a01b03167f8c5be1e5ebec7d5bd14f71427d1e84f3dd0314c0f7b2291e5b200ac8c7c3b92560405160405180910390a45050565b600060606000610a7e85858080601f01602080910402602001604051908101604052809392919081815260200183838082843760009201829052506040805180820190915260018152601d60f91b6020820152935091506110309050565b90506000811215610ac85760405162461bcd60e51b815260206004820152601460248201527314d95c185c985d1bdc881b5d5cdd08195e1a5cdd60621b604482015260640161047d565b6000610b2286600187610adb8287611b29565b92610ae893929190611aca565b8080601f0160208091040260200160405190810160405280939291908181526020018383808284376000920191909152506110f292505050565b905060006003610b328488611b29565b610b3c9190611b29565b905080610b6057816040518060200160405280600081525094509450505050610bd4565b3660008888610b70876002611af2565b90610b7c60018c611b29565b92610b8993929190611aca565b9150915083828281818080601f016020809104026020016040519081016040528093929190818152602001838380828437600092019190915250959c50919a50505050505050505050505b9250929050565b61051e83836111d8565b600080610bf18361068d565b9050806001600160a01b0316846001600160a01b03161480610c3857506001600160a01b0380821660009081526005602090815260408083209388168352929052205460ff165b80610c5c5750836001600160a01b0316610c51846103e1565b6001600160a01b0316145b949350505050565b826001600160a01b0316610c778261068d565b6001600160a01b031614610c9d5760405162461bcd60e51b815260040161047d90611a85565b6001600160a01b038216610cff5760405162461bcd60e51b8152602060048201526024808201527f4552433732313a207472616e7366657220746f20746865207a65726f206164646044820152637265737360e01b606482015260840161047d565b826001600160a01b0316610d128261068d565b6001600160a01b031614610d385760405162461bcd60e51b815260040161047d90611a85565b600081815260046020908152604080832080546001600160a01b03199081169091556001600160a01b0387811680865260038552838620805460001901905590871680865283862080546001019055868652600290945282852080549092168417909155905184937fddf252ad1be2c89b69c2b068fc378daa952ba7f163c4a11628f55a4df523b3ef91a4505050565b6006546001600160a01b0316331461081f5760405162461bcd60e51b815260206004820181905260248201527f4f776e61626c653a2063616c6c6572206973206e6f7420746865206f776e6572604482015260640161047d565b600680546001600160a01b038381166001600160a01b0319831681179093556040519116919082907f8be0079c531659141344cd1fd0a4f28419497f9722a3daafe3b4186f6b6457e090600090a35050565b816001600160a01b0316836001600160a01b03161415610ed65760405162461bcd60e51b815260206004820152601960248201527f4552433732313a20617070726f766520746f2063616c6c657200000000000000604482015260640161047d565b6001600160a01b03838116600081815260056020908152604080832094871680845294825291829020805460ff191686151590811790915591519182527f17307eab39ab6107e8899845ad3d59bd9653f200f220920489ca2b5937696c31910160405180910390a3505050565b610f4e848484610c64565b610f5a848484846111f2565b61086d5760405162461bcd60e51b815260040161047d90611a33565b60606009805461035e90611b6c565b60606000610f92836112ff565b600101905060008167ffffffffffffffff811115610fc057634e487b7160e01b600052604160045260246000fd5b6040519080825280601f01601f191660200182016040528015610fea576020820181803683370190505b5090508181016020015b600019016f181899199a1a9b1b9c1cb0b131b232b360811b600a86061a8153600a850494508461102357611028565b610ff4565b509392505050565b8151600090839060011461105457634e487b7160e01b600052600160045260246000fd5b825b85518110156110e5578160008151811061108057634e487b7160e01b600052603260045260246000fd5b602001015160f81c60f81b6001600160f81b0319168682815181106110b557634e487b7160e01b600052603260045260246000fd5b01602001516001600160f81b03191614156110d35791506108d39050565b806110dd81611ba7565b915050611056565b5060001995945050505050565b600080805b83518110156111d157600084828151811061112257634e487b7160e01b600052603260045260246000fd5b016020015160f81c90506030811080159061113e575060398111155b1561116a5761114e603082611b29565b61115984600a611b0a565b6111639190611af2565b92506111be565b60405162461bcd60e51b815260206004820152602360248201527f696e76616c696420696e7075742c206f6e6c79206e756d6265727320616c6c6f6044820152621dd95960ea1b606482015260840161047d565b50806111c981611ba7565b9150506110f7565b5092915050565b6106898282604051806020016040528060008152506113d7565b60006001600160a01b0384163b156112f457604051630a85bd0160e11b81526001600160a01b0385169063150b7a0290611236903390899088908890600401611996565b602060405180830381600087803b15801561125057600080fd5b505af1925050508015611280575060408051601f3d908101601f1916820190925261127d918101906118c1565b60015b6112da573d8080156112ae576040519150601f19603f3d011682016040523d82523d6000602084013e6112b3565b606091505b5080516112d25760405162461bcd60e51b815260040161047d90611a33565b805181602001fd5b6001600160e01b031916630a85bd0160e11b149050610c5c565b506001949350505050565b60008072184f03e93ff9f4daa797ed6e38ed64bf6a1f0160401b831061133e5772184f03e93ff9f4daa797ed6e38ed64bf6a1f0160401b830492506040015b6d04ee2d6d415b85acef8100000000831061136a576d04ee2d6d415b85acef8100000000830492506020015b662386f26fc10000831061138857662386f26fc10000830492506010015b6305f5e10083106113a0576305f5e100830492506008015b61271083106113b457612710830492506004015b606483106113c6576064830492506002015b600a83106103495760010192915050565b6113e1838361140a565b6113ee60008484846111f2565b61051e5760405162461bcd60e51b815260040161047d90611a33565b6001600160a01b0382166114605760405162461bcd60e51b815260206004820181905260248201527f4552433732313a206d696e7420746f20746865207a65726f2061646472657373604482015260640161047d565b6000818152600260205260409020546001600160a01b0316156114c55760405162461bcd60e51b815260206004820152601c60248201527f4552433732313a20746f6b656e20616c7265616479206d696e74656400000000604482015260640161047d565b6000818152600260205260409020546001600160a01b03161561152a5760405162461bcd60e51b815260206004820152601c60248201527f4552433732313a20746f6b656e20616c7265616479206d696e74656400000000604482015260640161047d565b6001600160a01b038216600081815260036020908152604080832080546001019055848352600290915280822080546001600160a01b0319168417905551839291907fddf252ad1be2c89b69c2b068fc378daa952ba7f163c4a11628f55a4df523b3ef908290a45050565b8280546115a190611b6c565b90600052602060002090601f0160209004810192826115c35760008555611609565b82601f106115dc57805160ff1916838001178555611609565b82800160010185558215611609579182015b828111156116095782518255916020019190600101906115ee565b50611615929150611619565b5090565b5b80821115611615576000815560010161161a565b600067ffffffffffffffff8084111561164957611649611bd8565b604051601f8501601f19908116603f0116810190828211818310171561167157611671611bd8565b8160405280935085815286868601111561168a57600080fd5b858560208301376000602087830101525050509392505050565b80356001600160a01b03811681146116bb57600080fd5b919050565b6000602082840312156116d1578081fd5b6108d3826116a4565b600080604083850312156116ec578081fd5b6116f5836116a4565b9150611703602084016116a4565b90509250929050565b600080600060608486031215611720578081fd5b611729846116a4565b9250611737602085016116a4565b9150604084013590509250925092565b6000806000806080858703121561175c578081fd5b611765856116a4565b9350611773602086016116a4565b925060408501359150606085013567ffffffffffffffff811115611795578182fd5b8501601f810187136117a5578182fd5b6117b48782356020840161162e565b91505092959194509250565b600080604083850312156117d2578182fd5b6117db836116a4565b9150602083013580151581146117ef578182fd5b809150509250929050565b6000806040838503121561180c578182fd5b611815836116a4565b946020939093013593505050565b60008060008060608587031215611838578384fd5b611841856116a4565b935060208501359250604085013567ffffffffffffffff80821115611864578384fd5b818701915087601f830112611877578384fd5b813581811115611885578485fd5b886020828501011115611896578485fd5b95989497505060200194505050565b6000602082840312156118b6578081fd5b81356108d381611bee565b6000602082840312156118d2578081fd5b81516108d381611bee565b6000602082840312156118ee578081fd5b813567ffffffffffffffff811115611904578182fd5b8201601f81018413611914578182fd5b610c5c8482356020840161162e565b600060208284031215611934578081fd5b5035919050565b60008151808452611953816020860160208601611b40565b601f01601f19169290920160200192915050565b60008351611979818460208801611b40565b83519083019061198d818360208801611b40565b01949350505050565b6001600160a01b03858116825284166020820152604081018390526080606082018190526000906119c99083018461193b565b9695505050505050565b6020815260006108d3602083018461193b565b6020808252602d908201527f4552433732313a2063616c6c6572206973206e6f7420746f6b656e206f776e6560408201526c1c881bdc88185c1c1c9bdd9959609a1b606082015260800190565b60208082526032908201527f4552433732313a207472616e7366657220746f206e6f6e20455243373231526560408201527131b2b4bb32b91034b6b83632b6b2b73a32b960711b606082015260800190565b60208082526025908201527f4552433732313a207472616e736665722066726f6d20696e636f72726563742060408201526437bbb732b960d91b606082015260800190565b60008085851115611ad9578182fd5b83861115611ae5578182fd5b5050820193919092039150565b60008219821115611b0557611b05611bc2565b500190565b6000816000190483118215151615611b2457611b24611bc2565b500290565b600082821015611b3b57611b3b611bc2565b500390565b60005b83811015611b5b578181015183820152602001611b43565b8381111561086d5750506000910152565b600181811c90821680611b8057607f821691505b60208210811415611ba157634e487b7160e01b600052602260045260246000fd5b50919050565b6000600019821415611bbb57611bbb611bc2565b5060010190565b634e487b7160e01b600052601160045260246000fd5b634e487b7160e01b600052604160045260246000fd5b6001600160e01b03198116811461095057600080fdfea26469706673582212201060f01eae042d7be8002dfa0e713fd2a5a611079a03f2f341e7ae6205800b6b64736f6c63430008040033",
  "linkReferences": {},
  "deployedLinkReferences": {}
}